{"contracts/staking.sol":{"staking":{"abi":[{"inputs":[{"internalType":"address","name":"tokenAddress","type":"address"}],"stateMutability":"nonpayable","type":"constructor"},{"inputs":[],"name":"stakingToken","outputs":[{"internalType":"contract IERC20","name":"","type":"address"}],"stateMutability":"view","type":"function"}],"evm":{"bytecode":{"linkReferences":{},"object":"608060405234801561001057600080fd5b506040516102043803806102048339818101604052810190610032919061009b565b506100c8565b600080fd5b600073ffffffffffffffffffffffffffffffffffffffff82169050919050565b60006100688261003d565b9050919050565b6100788161005d565b811461008357600080fd5b50565b6000815190506100958161006f565b92915050565b6000602082840312156100b1576100b0610038565b5b60006100bf84828501610086565b91505092915050565b61012d806100d76000396000f3fe6080604052348015600f57600080fd5b506004361060285760003560e01c806372f702f314602d575b600080fd5b60336047565b604051603e919060de565b60405180910390f35b60008054906101000a900473ffffffffffffffffffffffffffffffffffffffff1681565b600073ffffffffffffffffffffffffffffffffffffffff82169050919050565b6000819050919050565b600060aa60a660a284606b565b608b565b606b565b9050919050565b600060ba826095565b9050919050565b600060ca8260b1565b9050919050565b60d88160c1565b82525050565b600060208201905060f1600083018460d1565b9291505056fea2646970667358221220d791b0e82367e35e907ba933e5de3bbe5f8d9cd606ddbe70ab726e07f789104364736f6c63430008110033","opcodes":"PUSH1 0x80 PUSH1 0x40 MSTORE CALLVALUE DUP1 ISZERO PUSH2 0x10 JUMPI PUSH1 0x0 DUP1 REVERT JUMPDEST POP PUSH1 0x40 MLOAD PUSH2 0x204 CODESIZE SUB DUP1 PUSH2 0x204 DUP4 CODECOPY DUP2 DUP2 ADD PUSH1 0x40 MSTORE DUP2 ADD SWAP1 PUSH2 0x32 SWAP2 SWAP1 PUSH2 0x9B JUMP JUMPDEST POP PUSH2 0xC8 JUMP JUMPDEST PUSH1 0x0 DUP1 REVERT JUMPDEST PUSH1 0x0 PUSH20 0xFFFFFFFFFFFFFFFFFFFFFFFFFFFFFFFFFFFFFFFF DUP3 AND SWAP1 POP SWAP2 SWAP1 POP JUMP JUMPDEST PUSH1 0x0 PUSH2 0x68 DUP3 PUSH2 0x3D JUMP JUMPDEST SWAP1 POP SWAP2 SWAP1 POP JUMP JUMPDEST PUSH2 0x78 DUP2 PUSH2 0x5D JUMP JUMPDEST DUP2 EQ PUSH2 0x83 JUMPI PUSH1 0x0 DUP1 REVERT JUMPDEST POP JUMP JUMPDEST PUSH1 0x0 DUP2 MLOAD SWAP1 POP PUSH2 0x95 DUP2 PUSH2 0x6F JUMP JUMPDEST SWAP3 SWAP2 POP POP JUMP JUMPDEST PUSH1 0x0 PUSH1 0x20 DUP3 DUP5 SUB SLT ISZERO PUSH2 0xB1 JUMPI PUSH2 0xB0 PUSH2 0x38 JUMP JUMPDEST JUMPDEST PUSH1 0x0 PUSH2 0xBF DUP5 DUP3 DUP6 ADD PUSH2 0x86 JUMP JUMPDEST SWAP2 POP POP SWAP3 SWAP2 POP POP JUMP JUMPDEST PUSH2 0x12D DUP1 PUSH2 0xD7 PUSH1 0x0 CODECOPY PUSH1 0x0 RETURN INVALID PUSH1 0x80 PUSH1 0x40 MSTORE CALLVALUE DUP1 ISZERO PUSH1 0xF JUMPI PUSH1 0x0 DUP1 REVERT JUMPDEST POP PUSH1 0x4 CALLDATASIZE LT PUSH1 0x28 JUMPI PUSH1 0x0 CALLDATALOAD PUSH1 0xE0 SHR DUP1 PUSH4 0x72F702F3 EQ PUSH1 0x2D JUMPI JUMPDEST PUSH1 0x0 DUP1 REVERT JUMPDEST PUSH1 0x33 PUSH1 0x47 JUMP JUMPDEST PUSH1 0x40 MLOAD PUSH1 0x3E SWAP2 SWAP1 PUSH1 0xDE JUMP JUMPDEST PUSH1 0x40 MLOAD DUP1 SWAP2 SUB SWAP1 RETURN JUMPDEST PUSH1 0x0 DUP1 SLOAD SWAP1 PUSH2 0x100 EXP SWAP1 DIV PUSH20 0xFFFFFFFFFFFFFFFFFFFFFFFFFFFFFFFFFFFFFFFF AND DUP2 JUMP JUMPDEST PUSH1 0x0 PUSH20 0xFFFFFFFFFFFFFFFFFFFFFFFFFFFFFFFFFFFFFFFF DUP3 AND SWAP1 POP SWAP2 SWAP1 POP JUMP JUMPDEST PUSH1 0x0 DUP2 SWAP1 POP SWAP2 SWAP1 POP JUMP JUMPDEST PUSH1 0x0 PUSH1 0xAA PUSH1 0xA6 PUSH1 0xA2 DUP5 PUSH1 0x6B JUMP JUMPDEST PUSH1 0x8B JUMP JUMPDEST PUSH1 0x6B JUMP JUMPDEST SWAP1 POP SWAP2 SWAP1 POP JUMP JUMPDEST PUSH1 0x0 PUSH1 0xBA DUP3 PUSH1 0x95 JUMP JUMPDEST SWAP1 POP SWAP2 SWAP1 POP JUMP JUMPDEST PUSH1 0x0 PUSH1 0xCA DUP3 PUSH1 0xB1 JUMP JUMPDEST SWAP1 POP SWAP2 SWAP1 POP JUMP JUMPDEST PUSH1 0xD8 DUP2 PUSH1 0xC1 JUMP JUMPDEST DUP3 MSTORE POP POP JUMP JUMPDEST PUSH1 0x0 PUSH1 0x20 DUP3 ADD SWAP1 POP PUSH1 0xF1 PUSH1 0x0 DUP4 ADD DUP5 PUSH1 0xD1 JUMP JUMPDEST SWAP3 SWAP2 POP POP JUMP INVALID LOG2 PUSH5 0x6970667358 0x22 SLT KECCAK256 0xD7 SWAP2 0xB0 0xE8 0x23 PUSH8 0xE35E907BA933E5DE EXTCODESIZE 0xBE 0x5F DUP14 SWAP13 0xD6 MOD 0xDD 0xBE PUSH17 0xAB726E07F789104364736F6C6343000811 STOP CALLER "},"methodIdentifiers":{"stakingToken()":"72f702f3"}}}}}