{
  "_format": "hh-sol-artifact-1",
  "contractName": "staking",
  "sourceName": "contracts/staking.sol",
  "abi": [
    {
      "inputs": [
        {
          "internalType": "address",
          "name": "tokenAddress",
          "type": "address"
        }
      ],
      "stateMutability": "nonpayable",
      "type": "constructor"
    },
    {
      "inputs": [
        {
          "internalType": "uint256",
          "name": "tokenAmount",
          "type": "uint256"
        }
      ],
      "name": "stake",
      "outputs": [],
      "stateMutability": "nonpayable",
      "type": "function"
    },
    {
      "inputs": [],
      "name": "stakingToken",
      "outputs": [
        {
          "internalType": "contract IERC20",
          "name": "",
          "type": "address"
        }
      ],
      "stateMutability": "view",
      "type": "function"
    }
  ],
  "bytecode": "0x608060405234801561001057600080fd5b506040516102eb3803806102eb833981810160405281019061003291906100db565b806000806101000a81548173ffffffffffffffffffffffffffffffffffffffff021916908373ffffffffffffffffffffffffffffffffffffffff16021790555050610108565b600080fd5b600073ffffffffffffffffffffffffffffffffffffffff82169050919050565b60006100a88261007d565b9050919050565b6100b88161009d565b81146100c357600080fd5b50565b6000815190506100d5816100af565b92915050565b6000602082840312156100f1576100f0610078565b5b60006100ff848285016100c6565b91505092915050565b6101d4806101176000396000f3fe608060405234801561001057600080fd5b50600436106100365760003560e01c806372f702f31461003b578063a694fc3a14610059575b600080fd5b610043610075565b604051610050919061011b565b60405180910390f35b610073600480360381019061006e9190610171565b610099565b005b60008054906101000a900473ffffffffffffffffffffffffffffffffffffffff1681565b50565b600073ffffffffffffffffffffffffffffffffffffffff82169050919050565b6000819050919050565b60006100e16100dc6100d78461009c565b6100bc565b61009c565b9050919050565b60006100f3826100c6565b9050919050565b6000610105826100e8565b9050919050565b610115816100fa565b82525050565b6000602082019050610130600083018461010c565b92915050565b600080fd5b6000819050919050565b61014e8161013b565b811461015957600080fd5b50565b60008135905061016b81610145565b92915050565b60006020828403121561018757610186610136565b5b60006101958482850161015c565b9150509291505056fea2646970667358221220ac0559c35b39971ec3cb02e94c3a6bfb8d865f82e1a494891efd2f8f7cd1d5da64736f6c63430008110033",
  "linkReferences": {},
  "deployedLinkReferences": {}
}