{
  "_format": "hh-sol-artifact-1",
  "contractName": "staking",
  "sourceName": "contracts/staking.sol",
  "abi": [
    {
      "inputs": [
        {
          "internalType": "address",
          "name": "tokenAddress",
          "type": "address"
        }
      ],
      "stateMutability": "nonpayable",
      "type": "constructor"
    },
    {
      "inputs": [
        {
          "internalType": "address",
          "name": "",
          "type": "address"
        }
      ],
      "name": "balances",
      "outputs": [
        {
          "internalType": "uint256",
          "name": "",
          "type": "uint256"
        }
      ],
      "stateMutability": "view",
      "type": "function"
    },
    {
      "inputs": [
        {
          "internalType": "uint256",
          "name": "tokenAmount",
          "type": "uint256"
        }
      ],
      "name": "stake",
      "outputs": [],
      "stateMutability": "nonpayable",
      "type": "function"
    },
    {
      "inputs": [],
      "name": "stakingToken",
      "outputs": [
        {
          "internalType": "contract IERC20",
          "name": "",
          "type": "address"
        }
      ],
      "stateMutability": "view",
      "type": "function"
    },
    {
      "inputs": [],
      "name": "totalSupply",
      "outputs": [
        {
          "internalType": "uint256",
          "name": "",
          "type": "uint256"
        }
      ],
      "stateMutability": "view",
      "type": "function"
    }
  ],
  "bytecode": "0x608060405234801561001057600080fd5b50604051610628380380610628833981810160405281019061003291906100db565b806000806101000a81548173ffffffffffffffffffffffffffffffffffffffff021916908373ffffffffffffffffffffffffffffffffffffffff16021790555050610108565b600080fd5b600073ffffffffffffffffffffffffffffffffffffffff82169050919050565b60006100a88261007d565b9050919050565b6100b88161009d565b81146100c357600080fd5b50565b6000815190506100d5816100af565b92915050565b6000602082840312156100f1576100f0610078565b5b60006100ff848285016100c6565b91505092915050565b610511806101176000396000f3fe608060405234801561001057600080fd5b506004361061004c5760003560e01c806318160ddd1461005157806327e235e31461006f57806372f702f31461009f578063a694fc3a146100bd575b600080fd5b6100596100d9565b604051610066919061024f565b60405180910390f35b610089600480360381019061008491906102cd565b6100df565b604051610096919061024f565b60405180910390f35b6100a76100f7565b6040516100b49190610359565b60405180910390f35b6100d760048036038101906100d291906103a0565b61011b565b005b60025481565b60016020528060005260406000206000915090505481565b60008054906101000a900473ffffffffffffffffffffffffffffffffffffffff1681565b80600160003373ffffffffffffffffffffffffffffffffffffffff1673ffffffffffffffffffffffffffffffffffffffff168152602001908152602001600020600082825461016a91906103fc565b92505081905550806002600082825461018391906103fc565b9250508190555060008054906101000a900473ffffffffffffffffffffffffffffffffffffffff1673ffffffffffffffffffffffffffffffffffffffff166323b872dd3330846040518463ffffffff1660e01b81526004016101e79392919061043f565b6020604051808303816000875af1158015610206573d6000803e3d6000fd5b505050506040513d601f19601f8201168201806040525081019061022a91906104ae565b61023357600080fd5b50565b6000819050919050565b61024981610236565b82525050565b60006020820190506102646000830184610240565b92915050565b600080fd5b600073ffffffffffffffffffffffffffffffffffffffff82169050919050565b600061029a8261026f565b9050919050565b6102aa8161028f565b81146102b557600080fd5b50565b6000813590506102c7816102a1565b92915050565b6000602082840312156102e3576102e261026a565b5b60006102f1848285016102b8565b91505092915050565b6000819050919050565b600061031f61031a6103158461026f565b6102fa565b61026f565b9050919050565b600061033182610304565b9050919050565b600061034382610326565b9050919050565b61035381610338565b82525050565b600060208201905061036e600083018461034a565b92915050565b61037d81610236565b811461038857600080fd5b50565b60008135905061039a81610374565b92915050565b6000602082840312156103b6576103b561026a565b5b60006103c48482850161038b565b91505092915050565b7f4e487b7100000000000000000000000000000000000000000000000000000000600052601160045260246000fd5b600061040782610236565b915061041283610236565b925082820190508082111561042a576104296103cd565b5b92915050565b6104398161028f565b82525050565b60006060820190506104546000830186610430565b6104616020830185610430565b61046e6040830184610240565b949350505050565b60008115159050919050565b61048b81610476565b811461049657600080fd5b50565b6000815190506104a881610482565b92915050565b6000602082840312156104c4576104c361026a565b5b60006104d284828501610499565b9150509291505056fea2646970667358221220bb916a1b4dc5fb41da7ac1f078f97b8c241967b2833eae35f8b1cc3ca8c3337e64736f6c63430008110033",
  "linkReferences": {},
  "deployedLinkReferences": {}
}