{
  "_format": "hh-sol-artifact-1",
  "contractName": "staking",
  "sourceName": "contracts/staking.sol",
  "abi": [
    {
      "inputs": [
        {
          "internalType": "address",
          "name": "tokenAddress",
          "type": "address"
        }
      ],
      "stateMutability": "nonpayable",
      "type": "constructor"
    },
    {
      "inputs": [],
      "name": "stakingToken",
      "outputs": [
        {
          "internalType": "contract IERC20",
          "name": "",
          "type": "address"
        }
      ],
      "stateMutability": "view",
      "type": "function"
    }
  ],
  "bytecode": "0x608060405234801561001057600080fd5b506040516102043803806102048339818101604052810190610032919061009b565b506100c8565b600080fd5b600073ffffffffffffffffffffffffffffffffffffffff82169050919050565b60006100688261003d565b9050919050565b6100788161005d565b811461008357600080fd5b50565b6000815190506100958161006f565b92915050565b6000602082840312156100b1576100b0610038565b5b60006100bf84828501610086565b91505092915050565b61012d806100d76000396000f3fe6080604052348015600f57600080fd5b506004361060285760003560e01c806372f702f314602d575b600080fd5b60336047565b604051603e919060de565b60405180910390f35b60008054906101000a900473ffffffffffffffffffffffffffffffffffffffff1681565b600073ffffffffffffffffffffffffffffffffffffffff82169050919050565b6000819050919050565b600060aa60a660a284606b565b608b565b606b565b9050919050565b600060ba826095565b9050919050565b600060ca8260b1565b9050919050565b60d88160c1565b82525050565b600060208201905060f1600083018460d1565b9291505056fea2646970667358221220d791b0e82367e35e907ba933e5de3bbe5f8d9cd606ddbe70ab726e07f789104364736f6c63430008110033",
  "linkReferences": {},
  "deployedLinkReferences": {}
}